{
  "contractName": "TokenExample",
  "abi": [
    {
      "inputs": [],
      "name": "tokenBalance",
      "outputs": [
        {
          "internalType": "uint256",
          "name": "",
          "type": "uint256"
        }
      ],
      "stateMutability": "view",
      "type": "function",
      "constant": true
    },
    {
      "inputs": [
        {
          "internalType": "uint256",
          "name": "_num",
          "type": "uint256"
        }
      ],
      "name": "requireTokens",
      "outputs": [
        {
          "internalType": "string",
          "name": "",
          "type": "string"
        }
      ],
      "stateMutability": "pure",
      "type": "function",
      "constant": true
    },
    {
      "inputs": [
        {
          "internalType": "uint256",
          "name": "_num",
          "type": "uint256"
        }
      ],
      "name": "revertTokens",
      "outputs": [
        {
          "internalType": "string",
          "name": "",
          "type": "string"
        }
      ],
      "stateMutability": "pure",
      "type": "function",
      "constant": true
    },
    {
      "inputs": [
        {
          "internalType": "uint256",
          "name": "_num",
          "type": "uint256"
        }
      ],
      "name": "assertTokenBalance",
      "outputs": [
        {
          "internalType": "string",
          "name": "",
          "type": "string"
        }
      ],
      "stateMutability": "pure",
      "type": "function",
      "constant": true
    }
  ],
  "bytecode": "0x60806040526000805534801561001457600080fd5b506104a5806100246000396000f3fe608060405234801561001057600080fd5b506004361061004c5760003560e01c806355dc6d6f146100515780637f9bf8381461008157806390af1a9f146100b15780639e1a4d19146100e1575b600080fd5b61006b600480360381019061006691906102ac565b6100ff565b6040516100789190610369565b60405180910390f35b61009b600480360381019061009691906102ac565b610167565b6040516100a89190610369565b60405180910390f35b6100cb60048036038101906100c691906102ac565b6101e9565b6040516100d89190610369565b60405180910390f35b6100e961026b565b6040516100f6919061039a565b60405180910390f35b606060008203610146576040518060400160405280601b81526020017f417373657274696f6e207061737365643a205f6e756d206973203000000000008152509050610162565b6040518060600160405280602881526020016104486028913990505b919050565b6060606482116101ac576040517f08c379a00000000000000000000000000000000000000000000000000000000081526004016101a390610427565b60405180910390fd5b6040518060400160405280600e81526020017f546f6b656e7320497373756564210000000000000000000000000000000000008152509050919050565b60606064821161022e576040517f08c379a000000000000000000000000000000000000000000000000000000000815260040161022590610427565b60405180910390fd5b6040518060400160405280601081526020017f546f6b656e732052656465656d656421000000000000000000000000000000008152509050919050565b60005481565b600080fd5b6000819050919050565b61028981610276565b811461029457600080fd5b50565b6000813590506102a681610280565b92915050565b6000602082840312156102c2576102c1610271565b5b60006102d084828501610297565b91505092915050565b600081519050919050565b600082825260208201905092915050565b60005b838110156103135780820151818401526020810190506102f8565b60008484015250505050565b6000601f19601f8301169050919050565b600061033b826102d9565b61034581856102e4565b93506103558185602086016102f5565b61035e8161031f565b840191505092915050565b600060208201905081810360008301526103838184610330565b905092915050565b61039481610276565b82525050565b60006020820190506103af600083018461038b565b92915050565b7f506c6561736520696e70757420612076616c756520677265617465722074686160008201527f6e20313030000000000000000000000000000000000000000000000000000000602082015250565b60006104116025836102e4565b915061041c826103b5565b604082019050919050565b6000602082019050818103600083015261044081610404565b905091905056fe417373657274696f6e206661696c65643a205f6e756d206973206e6f7420657175616c20746f2030a264697066735822122008a35be7f971347f7ccab8f24904ea48a7c47d1987b9482088aeabce721c42bb64736f6c63430008110033",
  "immutableReferences": {},
  "source": "// SPDX-License-Identifier: MIT\n// Compiler version must be greater than or equal to 0.8.17 and less than 0.9.0\npragma solidity ^0.8.17;\n\ncontract TokenExample {\n\n    function requireTokens(uint _num) public pure returns (string memory) {\n        require(_num > 100, \"Please input a value greater than 100\");\n        return \"Tokens Issued!\";\n    }\n\n    function revertTokens(uint _num) public pure returns (string memory) {\n        if (_num <= 100) {\n            revert(\"Please input a value greater than 100\");\n        } else {\n            return \"Tokens Redeemed!\";\n        }\n    }\n\n    uint public tokenBalance = 0;\n\n   function assertTokenBalance(uint _num) public pure returns (string memory) {\n    if (_num == 0) {\n        return \"Assertion passed: _num is 0\";\n    } else {\n        return \"Assertion failed: _num is not equal to 0\";\n    }\n}\n}",
  "sourcePath": "/workspace/solidity_starter/contracts/TokenExample.sol",
  "compiler": {
    "name": "solc",
    "version": "0.8.17+commit.8df45f5f.Emscripten.clang"
  },
  "schemaVersion": "3.4.16",
  "updatedAt": "2023-10-03T08:24:50.229Z",
  "networkType": "ethereum",
  "devdoc": {
    "kind": "dev",
    "methods": {},
    "version": 1
  },
  "userdoc": {
    "kind": "user",
    "methods": {},
    "version": 1
  }
}